{
  "contractName": "Mangosweet",
  "abi": [
    {
      "inputs": [
        {
          "internalType": "uint256",
          "name": "initialSupply",
          "type": "uint256"
        }
      ],
      "stateMutability": "nonpayable",
      "type": "constructor"
    },
    {
      "anonymous": false,
      "inputs": [
        {
          "indexed": true,
          "internalType": "address",
          "name": "owner",
          "type": "address"
        },
        {
          "indexed": true,
          "internalType": "address",
          "name": "spender",
          "type": "address"
        },
        {
          "indexed": false,
          "internalType": "uint256",
          "name": "value",
          "type": "uint256"
        }
      ],
      "name": "Approval",
      "type": "event"
    },
    {
      "anonymous": false,
      "inputs": [
        {
          "indexed": true,
          "internalType": "address",
          "name": "previousOwner",
          "type": "address"
        },
        {
          "indexed": true,
          "internalType": "address",
          "name": "newOwner",
          "type": "address"
        }
      ],
      "name": "OwnershipTransferred",
      "type": "event"
    },
    {
      "anonymous": false,
      "inputs": [
        {
          "indexed": true,
          "internalType": "address",
          "name": "from",
          "type": "address"
        },
        {
          "indexed": true,
          "internalType": "address",
          "name": "to",
          "type": "address"
        },
        {
          "indexed": false,
          "internalType": "uint256",
          "name": "value",
          "type": "uint256"
        }
      ],
      "name": "Transfer",
      "type": "event"
    },
    {
      "anonymous": false,
      "inputs": [
        {
          "indexed": false,
          "internalType": "address",
          "name": "caller",
          "type": "address"
        },
        {
          "indexed": false,
          "internalType": "bool",
          "name": "isTrusted",
          "type": "bool"
        }
      ],
      "name": "TrustCallerSet",
      "type": "event"
    },
    {
      "inputs": [
        {
          "internalType": "address",
          "name": "owner",
          "type": "address"
        },
        {
          "internalType": "address",
          "name": "spender",
          "type": "address"
        }
      ],
      "name": "allowance",
      "outputs": [
        {
          "internalType": "uint256",
          "name": "",
          "type": "uint256"
        }
      ],
      "stateMutability": "view",
      "type": "function"
    },
    {
      "inputs": [
        {
          "internalType": "address",
          "name": "spender",
          "type": "address"
        },
        {
          "internalType": "uint256",
          "name": "amount",
          "type": "uint256"
        }
      ],
      "name": "approve",
      "outputs": [
        {
          "internalType": "bool",
          "name": "",
          "type": "bool"
        }
      ],
      "stateMutability": "nonpayable",
      "type": "function"
    },
    {
      "inputs": [
        {
          "internalType": "address",
          "name": "account",
          "type": "address"
        }
      ],
      "name": "balanceOf",
      "outputs": [
        {
          "internalType": "uint256",
          "name": "",
          "type": "uint256"
        }
      ],
      "stateMutability": "view",
      "type": "function"
    },
    {
      "inputs": [],
      "name": "decimals",
      "outputs": [
        {
          "internalType": "uint8",
          "name": "",
          "type": "uint8"
        }
      ],
      "stateMutability": "view",
      "type": "function"
    },
    {
      "inputs": [
        {
          "internalType": "address",
          "name": "spender",
          "type": "address"
        },
        {
          "internalType": "uint256",
          "name": "subtractedValue",
          "type": "uint256"
        }
      ],
      "name": "decreaseAllowance",
      "outputs": [
        {
          "internalType": "bool",
          "name": "",
          "type": "bool"
        }
      ],
      "stateMutability": "nonpayable",
      "type": "function"
    },
    {
      "inputs": [
        {
          "internalType": "address",
          "name": "spender",
          "type": "address"
        },
        {
          "internalType": "uint256",
          "name": "addedValue",
          "type": "uint256"
        }
      ],
      "name": "increaseAllowance",
      "outputs": [
        {
          "internalType": "bool",
          "name": "",
          "type": "bool"
        }
      ],
      "stateMutability": "nonpayable",
      "type": "function"
    },
    {
      "inputs": [
        {
          "internalType": "address",
          "name": "contractAddress",
          "type": "address"
        }
      ],
      "name": "isTrustCaller",
      "outputs": [
        {
          "internalType": "bool",
          "name": "",
          "type": "bool"
        }
      ],
      "stateMutability": "view",
      "type": "function"
    },
    {
      "inputs": [],
      "name": "name",
      "outputs": [
        {
          "internalType": "string",
          "name": "",
          "type": "string"
        }
      ],
      "stateMutability": "view",
      "type": "function"
    },
    {
      "inputs": [],
      "name": "owner",
      "outputs": [
        {
          "internalType": "address",
          "name": "",
          "type": "address"
        }
      ],
      "stateMutability": "view",
      "type": "function"
    },
    {
      "inputs": [],
      "name": "renounceOwnership",
      "outputs": [],
      "stateMutability": "nonpayable",
      "type": "function"
    },
    {
      "inputs": [
        {
          "internalType": "address",
          "name": "callerAddress",
          "type": "address"
        },
        {
          "internalType": "bool",
          "name": "isTrusted",
          "type": "bool"
        }
      ],
      "name": "setTrustCaller",
      "outputs": [],
      "stateMutability": "nonpayable",
      "type": "function"
    },
    {
      "inputs": [],
      "name": "symbol",
      "outputs": [
        {
          "internalType": "string",
          "name": "",
          "type": "string"
        }
      ],
      "stateMutability": "view",
      "type": "function"
    },
    {
      "inputs": [],
      "name": "totalSupply",
      "outputs": [
        {
          "internalType": "uint256",
          "name": "",
          "type": "uint256"
        }
      ],
      "stateMutability": "view",
      "type": "function"
    },
    {
      "inputs": [
        {
          "internalType": "address",
          "name": "recipient",
          "type": "address"
        },
        {
          "internalType": "uint256",
          "name": "amount",
          "type": "uint256"
        }
      ],
      "name": "transfer",
      "outputs": [
        {
          "internalType": "bool",
          "name": "",
          "type": "bool"
        }
      ],
      "stateMutability": "nonpayable",
      "type": "function"
    },
    {
      "inputs": [
        {
          "internalType": "address",
          "name": "sender",
          "type": "address"
        },
        {
          "internalType": "address",
          "name": "recipient",
          "type": "address"
        },
        {
          "internalType": "uint256",
          "name": "amount",
          "type": "uint256"
        }
      ],
      "name": "transferFrom",
      "outputs": [
        {
          "internalType": "bool",
          "name": "",
          "type": "bool"
        }
      ],
      "stateMutability": "nonpayable",
      "type": "function"
    },
    {
      "inputs": [
        {
          "internalType": "address",
          "name": "newOwner",
          "type": "address"
        }
      ],
      "name": "transferOwnership",
      "outputs": [],
      "stateMutability": "nonpayable",
      "type": "function"
    },
    {
      "inputs": [
        {
          "internalType": "address",
          "name": "account",
          "type": "address"
        },
        {
          "internalType": "uint256",
          "name": "amount",
          "type": "uint256"
        }
      ],
      "name": "mint",
      "outputs": [],
      "stateMutability": "nonpayable",
      "type": "function"
    },
    {
      "inputs": [
        {
          "internalType": "uint256",
          "name": "amount",
          "type": "uint256"
        }
      ],
      "name": "burn",
      "outputs": [],
      "stateMutability": "nonpayable",
      "type": "function"
    }
  ],
  "bytecode": "0x60806040523480156200001157600080fd5b50604051620028963803806200289683398181016040528101906200003791906200042b565b6040518060400160405280600a81526020017f4d616e676f7377656574000000000000000000000000000000000000000000008152506040518060400160405280600681526020017f4d414e474f5400000000000000000000000000000000000000000000000000008152508160039080519060200190620000bb92919062000364565b508060049080519060200190620000d492919062000364565b5050506000620000e9620001f260201b60201c565b905080600560006101000a81548173ffffffffffffffffffffffffffffffffffffffff021916908373ffffffffffffffffffffffffffffffffffffffff1602179055508073ffffffffffffffffffffffffffffffffffffffff16600073ffffffffffffffffffffffffffffffffffffffff167f8be0079c531659141344cd1fd0a4f28419497f9722a3daafe3b4186f6b6457e060405160405180910390a3506aa56fa5b99019a5c8000000811115620001d9576040517f08c379a0000000000000000000000000000000000000000000000000000000008152600401620001d090620004ec565b60405180910390fd5b620001eb3382620001fa60201b60201c565b5062000673565b600033905090565b600073ffffffffffffffffffffffffffffffffffffffff168273ffffffffffffffffffffffffffffffffffffffff1614156200026d576040517f08c379a000000000000000000000000000000000000000000000000000000000815260040162000264906200050e565b60405180910390fd5b62000281600083836200035f60201b60201c565b80600260008282546200029591906200055e565b92505081905550806000808473ffffffffffffffffffffffffffffffffffffffff1673ffffffffffffffffffffffffffffffffffffffff1681526020019081526020016000206000828254620002ec91906200055e565b925050819055508173ffffffffffffffffffffffffffffffffffffffff16600073ffffffffffffffffffffffffffffffffffffffff167fddf252ad1be2c89b69c2b068fc378daa952ba7f163c4a11628f55a4df523b3ef8360405162000353919062000530565b60405180910390a35050565b505050565b8280546200037290620005c5565b90600052602060002090601f016020900481019282620003965760008555620003e2565b82601f10620003b157805160ff1916838001178555620003e2565b82800160010185558215620003e2579182015b82811115620003e1578251825591602001919060010190620003c4565b5b509050620003f19190620003f5565b5090565b5b8082111562000410576000816000905550600101620003f6565b5090565b600081519050620004258162000659565b92915050565b6000602082840312156200043e57600080fd5b60006200044e8482850162000414565b91505092915050565b600062000466601b836200054d565b91507f43616e6e6f74206d696e74206d6f7265207468616e206c696d697400000000006000830152602082019050919050565b6000620004a8601f836200054d565b91507f45524332303a206d696e7420746f20746865207a65726f2061646472657373006000830152602082019050919050565b620004e681620005bb565b82525050565b60006020820190508181036000830152620005078162000457565b9050919050565b60006020820190508181036000830152620005298162000499565b9050919050565b6000602082019050620005476000830184620004db565b92915050565b600082825260208201905092915050565b60006200056b82620005bb565b91506200057883620005bb565b9250827fffffffffffffffffffffffffffffffffffffffffffffffffffffffffffffffff03821115620005b057620005af620005fb565b5b828201905092915050565b6000819050919050565b60006002820490506001821680620005de57607f821691505b60208210811415620005f557620005f46200062a565b5b50919050565b7f4e487b7100000000000000000000000000000000000000000000000000000000600052601160045260246000fd5b7f4e487b7100000000000000000000000000000000000000000000000000000000600052602260045260246000fd5b6200066481620005bb565b81146200067057600080fd5b50565b61221380620006836000396000f3fe608060405234801561001057600080fd5b50600436106101165760003560e01c806370a08231116100a2578063a457c2d711610071578063a457c2d7146102cf578063a9059cbb146102ff578063dd62ed3e1461032f578063f24b890d1461035f578063f2fde38b1461038f57610116565b806370a0823114610259578063715018a6146102895780638da5cb5b1461029357806395d89b41146102b157610116565b806323b872dd116100e957806323b872dd146101a3578063313ce567146101d357806339509351146101f157806340c10f191461022157806342966c681461023d57610116565b806306fdde031461011b578063095ea7b3146101395780630b9bf7521461016957806318160ddd14610185575b600080fd5b6101236103ab565b6040516101309190611d91565b60405180910390f35b610153600480360381019061014e919061171c565b61043d565b6040516101609190611d76565b60405180910390f35b610183600480360381019061017e91906116e0565b61045b565b005b61018d61056b565b60405161019a9190611f93565b60405180910390f35b6101bd60048036038101906101b89190611691565b610575565b6040516101ca9190611d76565b60405180910390f35b6101db610676565b6040516101e89190611fae565b60405180910390f35b61020b6004803603810190610206919061171c565b61067f565b6040516102189190611d76565b60405180910390f35b61023b6004803603810190610236919061171c565b61072b565b005b61025760048036038101906102529190611758565b61082c565b005b610273600480360381019061026e919061162c565b610839565b6040516102809190611f93565b60405180910390f35b610291610881565b005b61029b6109be565b6040516102a89190611d32565b60405180910390f35b6102b96109e8565b6040516102c69190611d91565b60405180910390f35b6102e960048036038101906102e4919061171c565b610a7a565b6040516102f69190611d76565b60405180910390f35b6103196004803603810190610314919061171c565b610b6e565b6040516103269190611d76565b60405180910390f35b61034960048036038101906103449190611655565b610b8c565b6040516103569190611f93565b60405180910390f35b6103796004803603810190610374919061162c565b610c13565b6040516103869190611d76565b60405180910390f35b6103a960048036038101906103a4919061162c565b610c69565b005b6060600380546103ba906120f7565b80601f01602080910402602001604051908101604052809291908181526020018280546103e6906120f7565b80156104335780601f1061040857610100808354040283529160200191610433565b820191906000526020600020905b81548152906001019060200180831161041657829003601f168201915b5050505050905090565b600061045161044a610e15565b8484610e1d565b6001905092915050565b610463610e15565b73ffffffffffffffffffffffffffffffffffffffff166104816109be565b73ffffffffffffffffffffffffffffffffffffffff16146104d7576040517f08c379a00000000000000000000000000000000000000000000000000000000081526004016104ce90611eb3565b60405180910390fd5b80600660008473ffffffffffffffffffffffffffffffffffffffff1673ffffffffffffffffffffffffffffffffffffffff16815260200190815260200160002060006101000a81548160ff0219169083151502179055507f1dee56faa18d0c8d78501c69124319f8f880b6c597ff962dc91261f04fba4ae9828260405161055f929190611d4d565b60405180910390a15050565b6000600254905090565b6000610582848484610fe8565b6000600160008673ffffffffffffffffffffffffffffffffffffffff1673ffffffffffffffffffffffffffffffffffffffff16815260200190815260200160002060006105cd610e15565b73ffffffffffffffffffffffffffffffffffffffff1673ffffffffffffffffffffffffffffffffffffffff1681526020019081526020016000205490508281101561064d576040517f08c379a000000000000000000000000000000000000000000000000000000000815260040161064490611e93565b60405180910390fd5b61066a85610659610e15565b8584610665919061203b565b610e1d565b60019150509392505050565b60006012905090565b600061072161068c610e15565b84846001600061069a610e15565b73ffffffffffffffffffffffffffffffffffffffff1673ffffffffffffffffffffffffffffffffffffffff16815260200190815260200160002060008873ffffffffffffffffffffffffffffffffffffffff1673ffffffffffffffffffffffffffffffffffffffff1681526020019081526020016000205461071c9190611fe5565b610e1d565b6001905092915050565b600660003373ffffffffffffffffffffffffffffffffffffffff1673ffffffffffffffffffffffffffffffffffffffff16815260200190815260200160002060009054906101000a900460ff166107b7576040517f08c379a00000000000000000000000000000000000000000000000000000000081526004016107ae90611f33565b60405180910390fd5b6aa56fa5b99019a5c80000006107dd826107cf61056b565b61126790919063ffffffff16565b111561081e576040517f08c379a000000000000000000000000000000000000000000000000000000000815260040161081590611e73565b60405180910390fd5b61082882826112c0565b5050565b6108363382611414565b50565b60008060008373ffffffffffffffffffffffffffffffffffffffff1673ffffffffffffffffffffffffffffffffffffffff168152602001908152602001600020549050919050565b610889610e15565b73ffffffffffffffffffffffffffffffffffffffff166108a76109be565b73ffffffffffffffffffffffffffffffffffffffff16146108fd576040517f08c379a00000000000000000000000000000000000000000000000000000000081526004016108f490611eb3565b60405180910390fd5b600073ffffffffffffffffffffffffffffffffffffffff16600560009054906101000a900473ffffffffffffffffffffffffffffffffffffffff1673ffffffffffffffffffffffffffffffffffffffff167f8be0079c531659141344cd1fd0a4f28419497f9722a3daafe3b4186f6b6457e060405160405180910390a36000600560006101000a81548173ffffffffffffffffffffffffffffffffffffffff021916908373ffffffffffffffffffffffffffffffffffffffff160217905550565b6000600560009054906101000a900473ffffffffffffffffffffffffffffffffffffffff16905090565b6060600480546109f7906120f7565b80601f0160208091040260200160405190810160405280929190818152602001828054610a23906120f7565b8015610a705780601f10610a4557610100808354040283529160200191610a70565b820191906000526020600020905b815481529060010190602001808311610a5357829003601f168201915b5050505050905090565b60008060016000610a89610e15565b73ffffffffffffffffffffffffffffffffffffffff1673ffffffffffffffffffffffffffffffffffffffff16815260200190815260200160002060008573ffffffffffffffffffffffffffffffffffffffff1673ffffffffffffffffffffffffffffffffffffffff16815260200190815260200160002054905082811015610b46576040517f08c379a0000000000000000000000000000000000000000000000000000000008152600401610b3d90611f53565b60405180910390fd5b610b63610b51610e15565b858584610b5e919061203b565b610e1d565b600191505092915050565b6000610b82610b7b610e15565b8484610fe8565b6001905092915050565b6000600160008473ffffffffffffffffffffffffffffffffffffffff1673ffffffffffffffffffffffffffffffffffffffff16815260200190815260200160002060008373ffffffffffffffffffffffffffffffffffffffff1673ffffffffffffffffffffffffffffffffffffffff16815260200190815260200160002054905092915050565b6000600660008373ffffffffffffffffffffffffffffffffffffffff1673ffffffffffffffffffffffffffffffffffffffff16815260200190815260200160002060009054906101000a900460ff169050919050565b610c71610e15565b73ffffffffffffffffffffffffffffffffffffffff16610c8f6109be565b73ffffffffffffffffffffffffffffffffffffffff1614610ce5576040517f08c379a0000000000000000000000000000000000000000000000000000000008152600401610cdc90611eb3565b60405180910390fd5b600073ffffffffffffffffffffffffffffffffffffffff168173ffffffffffffffffffffffffffffffffffffffff161415610d55576040517f08c379a0000000000000000000000000000000000000000000000000000000008152600401610d4c90611df3565b60405180910390fd5b8073ffffffffffffffffffffffffffffffffffffffff16600560009054906101000a900473ffffffffffffffffffffffffffffffffffffffff1673ffffffffffffffffffffffffffffffffffffffff167f8be0079c531659141344cd1fd0a4f28419497f9722a3daafe3b4186f6b6457e060405160405180910390a380600560006101000a81548173ffffffffffffffffffffffffffffffffffffffff021916908373ffffffffffffffffffffffffffffffffffffffff16021790555050565b600033905090565b600073ffffffffffffffffffffffffffffffffffffffff168373ffffffffffffffffffffffffffffffffffffffff161415610e8d576040517f08c379a0000000000000000000000000000000000000000000000000000000008152600401610e8490611f13565b60405180910390fd5b600073ffffffffffffffffffffffffffffffffffffffff168273ffffffffffffffffffffffffffffffffffffffff161415610efd576040517f08c379a0000000000000000000000000000000000000000000000000000000008152600401610ef490611e13565b60405180910390fd5b80600160008573ffffffffffffffffffffffffffffffffffffffff1673ffffffffffffffffffffffffffffffffffffffff16815260200190815260200160002060008473ffffffffffffffffffffffffffffffffffffffff1673ffffffffffffffffffffffffffffffffffffffff168152602001908152602001600020819055508173ffffffffffffffffffffffffffffffffffffffff168373ffffffffffffffffffffffffffffffffffffffff167f8c5be1e5ebec7d5bd14f71427d1e84f3dd0314c0f7b2291e5b200ac8c7c3b92583604051610fdb9190611f93565b60405180910390a3505050565b600073ffffffffffffffffffffffffffffffffffffffff168373ffffffffffffffffffffffffffffffffffffffff161415611058576040517f08c379a000000000000000000000000000000000000000000000000000000000815260040161104f90611ef3565b60405180910390fd5b600073ffffffffffffffffffffffffffffffffffffffff168273ffffffffffffffffffffffffffffffffffffffff1614156110c8576040517f08c379a00000000000000000000000000000000000000000000000000000000081526004016110bf90611db3565b60405180910390fd5b6110d38383836115e8565b60008060008573ffffffffffffffffffffffffffffffffffffffff1673ffffffffffffffffffffffffffffffffffffffff16815260200190815260200160002054905081811015611159576040517f08c379a000000000000000000000000000000000000000000000000000000000815260040161115090611e33565b60405180910390fd5b8181611165919061203b565b6000808673ffffffffffffffffffffffffffffffffffffffff1673ffffffffffffffffffffffffffffffffffffffff16815260200190815260200160002081905550816000808573ffffffffffffffffffffffffffffffffffffffff1673ffffffffffffffffffffffffffffffffffffffff16815260200190815260200160002060008282546111f59190611fe5565b925050819055508273ffffffffffffffffffffffffffffffffffffffff168473ffffffffffffffffffffffffffffffffffffffff167fddf252ad1be2c89b69c2b068fc378daa952ba7f163c4a11628f55a4df523b3ef846040516112599190611f93565b60405180910390a350505050565b600081836112759190611fe5565b9050828110156112ba576040517f08c379a00000000000000000000000000000000000000000000000000000000081526004016112b190611e53565b60405180910390fd5b92915050565b600073ffffffffffffffffffffffffffffffffffffffff168273ffffffffffffffffffffffffffffffffffffffff161415611330576040517f08c379a000000000000000000000000000000000000000000000000000000000815260040161132790611f73565b60405180910390fd5b61133c600083836115e8565b806002600082825461134e9190611fe5565b92505081905550806000808473ffffffffffffffffffffffffffffffffffffffff1673ffffffffffffffffffffffffffffffffffffffff16815260200190815260200160002060008282546113a39190611fe5565b925050819055508173ffffffffffffffffffffffffffffffffffffffff16600073ffffffffffffffffffffffffffffffffffffffff167fddf252ad1be2c89b69c2b068fc378daa952ba7f163c4a11628f55a4df523b3ef836040516114089190611f93565b60405180910390a35050565b600073ffffffffffffffffffffffffffffffffffffffff168273ffffffffffffffffffffffffffffffffffffffff161415611484576040517f08c379a000000000000000000000000000000000000000000000000000000000815260040161147b90611ed3565b60405180910390fd5b611490826000836115e8565b60008060008473ffffffffffffffffffffffffffffffffffffffff1673ffffffffffffffffffffffffffffffffffffffff16815260200190815260200160002054905081811015611516576040517f08c379a000000000000000000000000000000000000000000000000000000000815260040161150d90611dd3565b60405180910390fd5b8181611522919061203b565b6000808573ffffffffffffffffffffffffffffffffffffffff1673ffffffffffffffffffffffffffffffffffffffff168152602001908152602001600020819055508160026000828254611576919061203b565b92505081905550600073ffffffffffffffffffffffffffffffffffffffff168373ffffffffffffffffffffffffffffffffffffffff167fddf252ad1be2c89b69c2b068fc378daa952ba7f163c4a11628f55a4df523b3ef846040516115db9190611f93565b60405180910390a3505050565b505050565b6000813590506115fc81612198565b92915050565b600081359050611611816121af565b92915050565b600081359050611626816121c6565b92915050565b60006020828403121561163e57600080fd5b600061164c848285016115ed565b91505092915050565b6000806040838503121561166857600080fd5b6000611676858286016115ed565b9250506020611687858286016115ed565b9150509250929050565b6000806000606084860312156116a657600080fd5b60006116b4868287016115ed565b93505060206116c5868287016115ed565b92505060406116d686828701611617565b9150509250925092565b600080604083850312156116f357600080fd5b6000611701858286016115ed565b925050602061171285828601611602565b9150509250929050565b6000806040838503121561172f57600080fd5b600061173d858286016115ed565b925050602061174e85828601611617565b9150509250929050565b60006020828403121561176a57600080fd5b600061177884828501611617565b91505092915050565b61178a8161206f565b82525050565b61179981612081565b82525050565b60006117aa82611fc9565b6117b48185611fd4565b93506117c48185602086016120c4565b6117cd81612187565b840191505092915050565b60006117e5602383611fd4565b91507f45524332303a207472616e7366657220746f20746865207a65726f206164647260008301527f65737300000000000000000000000000000000000000000000000000000000006020830152604082019050919050565b600061184b602283611fd4565b91507f45524332303a206275726e20616d6f756e7420657863656564732062616c616e60008301527f63650000000000000000000000000000000000000000000000000000000000006020830152604082019050919050565b60006118b1602683611fd4565b91507f4f776e61626c653a206e6577206f776e657220697320746865207a65726f206160008301527f64647265737300000000000000000000000000000000000000000000000000006020830152604082019050919050565b6000611917602283611fd4565b91507f45524332303a20617070726f766520746f20746865207a65726f20616464726560008301527f73730000000000000000000000000000000000000000000000000000000000006020830152604082019050919050565b600061197d602683611fd4565b91507f45524332303a207472616e7366657220616d6f756e742065786365656473206260008301527f616c616e636500000000000000000000000000000000000000000000000000006020830152604082019050919050565b60006119e3601583611fd4565b91507f6f766572666c6f772069732070726576656e74656400000000000000000000006000830152602082019050919050565b6000611a23601683611fd4565b91507f43616e6e6f74206d6f7265207468616e206c696d6974000000000000000000006000830152602082019050919050565b6000611a63602883611fd4565b91507f45524332303a207472616e7366657220616d6f756e742065786365656473206160008301527f6c6c6f77616e63650000000000000000000000000000000000000000000000006020830152604082019050919050565b6000611ac9602083611fd4565b91507f4f776e61626c653a2063616c6c6572206973206e6f7420746865206f776e65726000830152602082019050919050565b6000611b09602183611fd4565b91507f45524332303a206275726e2066726f6d20746865207a65726f2061646472657360008301527f73000000000000000000000000000000000000000000000000000000000000006020830152604082019050919050565b6000611b6f602583611fd4565b91507f45524332303a207472616e736665722066726f6d20746865207a65726f20616460008301527f64726573730000000000000000000000000000000000000000000000000000006020830152604082019050919050565b6000611bd5602483611fd4565b91507f45524332303a20617070726f76652066726f6d20746865207a65726f2061646460008301527f72657373000000000000000000000000000000000000000000000000000000006020830152604082019050919050565b6000611c3b601383611fd4565b91507f43616c6c6572206973206e6f74207472757374000000000000000000000000006000830152602082019050919050565b6000611c7b602583611fd4565b91507f45524332303a2064656372656173656420616c6c6f77616e63652062656c6f7760008301527f207a65726f0000000000000000000000000000000000000000000000000000006020830152604082019050919050565b6000611ce1601f83611fd4565b91507f45524332303a206d696e7420746f20746865207a65726f2061646472657373006000830152602082019050919050565b611d1d816120ad565b82525050565b611d2c816120b7565b82525050565b6000602082019050611d476000830184611781565b92915050565b6000604082019050611d626000830185611781565b611d6f6020830184611790565b9392505050565b6000602082019050611d8b6000830184611790565b92915050565b60006020820190508181036000830152611dab818461179f565b905092915050565b60006020820190508181036000830152611dcc816117d8565b9050919050565b60006020820190508181036000830152611dec8161183e565b9050919050565b60006020820190508181036000830152611e0c816118a4565b9050919050565b60006020820190508181036000830152611e2c8161190a565b9050919050565b60006020820190508181036000830152611e4c81611970565b9050919050565b60006020820190508181036000830152611e6c816119d6565b9050919050565b60006020820190508181036000830152611e8c81611a16565b9050919050565b60006020820190508181036000830152611eac81611a56565b9050919050565b60006020820190508181036000830152611ecc81611abc565b9050919050565b60006020820190508181036000830152611eec81611afc565b9050919050565b60006020820190508181036000830152611f0c81611b62565b9050919050565b60006020820190508181036000830152611f2c81611bc8565b9050919050565b60006020820190508181036000830152611f4c81611c2e565b9050919050565b60006020820190508181036000830152611f6c81611c6e565b9050919050565b60006020820190508181036000830152611f8c81611cd4565b9050919050565b6000602082019050611fa86000830184611d14565b92915050565b6000602082019050611fc36000830184611d23565b92915050565b600081519050919050565b600082825260208201905092915050565b6000611ff0826120ad565b9150611ffb836120ad565b9250827fffffffffffffffffffffffffffffffffffffffffffffffffffffffffffffffff038211156120305761202f612129565b5b828201905092915050565b6000612046826120ad565b9150612051836120ad565b92508282101561206457612063612129565b5b828203905092915050565b600061207a8261208d565b9050919050565b60008115159050919050565b600073ffffffffffffffffffffffffffffffffffffffff82169050919050565b6000819050919050565b600060ff82169050919050565b60005b838110156120e25780820151818401526020810190506120c7565b838111156120f1576000848401525b50505050565b6000600282049050600182168061210f57607f821691505b6020821081141561212357612122612158565b5b50919050565b7f4e487b7100000000000000000000000000000000000000000000000000000000600052601160045260246000fd5b7f4e487b7100000000000000000000000000000000000000000000000000000000600052602260045260246000fd5b6000601f19601f8301169050919050565b6121a18161206f565b81146121ac57600080fd5b50565b6121b881612081565b81146121c357600080fd5b50565b6121cf816120ad565b81146121da57600080fd5b5056fea2646970667358221220428622c0de287b7c05c14e747d891222a6b3d75eca9423db34bbc58497eea38064736f6c63430008000033",
  "immutableReferences": {},
  "source": "// SPDX-License-Identifier: GPL-3.0\npragma solidity ^0.8.0;\n\nimport \"@openzeppelin/contracts/token/ERC20/ERC20.sol\";\nimport \"@openzeppelin/contracts/access/Ownable.sol\";\nimport \"../utils/TrustCaller.sol\";\nimport \"../utils/SafeMath.sol\";\n\n\ncontract Mangosweet is ERC20, Ownable, TrustCaller {\n    using SafeMath for uint256;\n    \n    uint256 constant LIMIT_TOTAL_SUPPLY = 2E26;\n\n    constructor(uint256 initialSupply) ERC20(\"Mangosweet\", \"MANGOT\") {\n        require(initialSupply <= LIMIT_TOTAL_SUPPLY, \"Cannot mint more than limit\");\n\n        _mint(msg.sender, initialSupply);\n    }\n\n    function mint(address account, uint256 amount) external onlyTrustCaller {\n        require(totalSupply().add(amount) <= LIMIT_TOTAL_SUPPLY, \"Cannot more than limit\");\n\n        _mint(account, amount);\n    }\n\n    function burn(uint256 amount) external {\n        _burn(msg.sender, amount);\n    }\n}",
  "sourcePath": "/Users/tom/workspace/blockchain/mangosweet.finance/bsc-mangosweet-contract/contracts/Mangosweet.sol",
  "compiler": {
    "name": "solc",
    "version": "0.8.0+commit.c7dfd78e.Emscripten.clang"
  },
  "schemaVersion": "3.4.1",
  "updatedAt": "2021-06-23T11:51:20.567Z",
  "devdoc": {
    "kind": "dev",
    "methods": {
      "allowance(address,address)": {
        "details": "See {IERC20-allowance}."
      },
      "approve(address,uint256)": {
        "details": "See {IERC20-approve}. Requirements: - `spender` cannot be the zero address."
      },
      "balanceOf(address)": {
        "details": "See {IERC20-balanceOf}."
      },
      "decimals()": {
        "details": "Returns the number of decimals used to get its user representation. For example, if `decimals` equals `2`, a balance of `505` tokens should be displayed to a user as `5,05` (`505 / 10 ** 2`). Tokens usually opt for a value of 18, imitating the relationship between Ether and Wei. This is the value {ERC20} uses, unless this function is overridden; NOTE: This information is only used for _display_ purposes: it in no way affects any of the arithmetic of the contract, including {IERC20-balanceOf} and {IERC20-transfer}."
      },
      "decreaseAllowance(address,uint256)": {
        "details": "Atomically decreases the allowance granted to `spender` by the caller. This is an alternative to {approve} that can be used as a mitigation for problems described in {IERC20-approve}. Emits an {Approval} event indicating the updated allowance. Requirements: - `spender` cannot be the zero address. - `spender` must have allowance for the caller of at least `subtractedValue`."
      },
      "increaseAllowance(address,uint256)": {
        "details": "Atomically increases the allowance granted to `spender` by the caller. This is an alternative to {approve} that can be used as a mitigation for problems described in {IERC20-approve}. Emits an {Approval} event indicating the updated allowance. Requirements: - `spender` cannot be the zero address."
      },
      "name()": {
        "details": "Returns the name of the token."
      },
      "owner()": {
        "details": "Returns the address of the current owner."
      },
      "renounceOwnership()": {
        "details": "Leaves the contract without owner. It will not be possible to call `onlyOwner` functions anymore. Can only be called by the current owner. NOTE: Renouncing ownership will leave the contract without an owner, thereby removing any functionality that is only available to the owner."
      },
      "symbol()": {
        "details": "Returns the symbol of the token, usually a shorter version of the name."
      },
      "totalSupply()": {
        "details": "See {IERC20-totalSupply}."
      },
      "transfer(address,uint256)": {
        "details": "See {IERC20-transfer}. Requirements: - `recipient` cannot be the zero address. - the caller must have a balance of at least `amount`."
      },
      "transferFrom(address,address,uint256)": {
        "details": "See {IERC20-transferFrom}. Emits an {Approval} event indicating the updated allowance. This is not required by the EIP. See the note at the beginning of {ERC20}. Requirements: - `sender` and `recipient` cannot be the zero address. - `sender` must have a balance of at least `amount`. - the caller must have allowance for ``sender``'s tokens of at least `amount`."
      },
      "transferOwnership(address)": {
        "details": "Transfers ownership of the contract to a new account (`newOwner`). Can only be called by the current owner."
      }
    },
    "version": 1
  },
  "userdoc": {
    "kind": "user",
    "methods": {},
    "version": 1
  }
}