{
  "contractName": "MangoSweet",
  "abi": [
    {
      "inputs": [
        {
          "internalType": "uint256",
          "name": "initialSupply",
          "type": "uint256"
        }
      ],
      "stateMutability": "nonpayable",
      "type": "constructor"
    },
    {
      "anonymous": false,
      "inputs": [
        {
          "indexed": true,
          "internalType": "address",
          "name": "owner",
          "type": "address"
        },
        {
          "indexed": true,
          "internalType": "address",
          "name": "spender",
          "type": "address"
        },
        {
          "indexed": false,
          "internalType": "uint256",
          "name": "value",
          "type": "uint256"
        }
      ],
      "name": "Approval",
      "type": "event"
    },
    {
      "anonymous": false,
      "inputs": [
        {
          "indexed": true,
          "internalType": "address",
          "name": "previousOwner",
          "type": "address"
        },
        {
          "indexed": true,
          "internalType": "address",
          "name": "newOwner",
          "type": "address"
        }
      ],
      "name": "OwnershipTransferred",
      "type": "event"
    },
    {
      "anonymous": false,
      "inputs": [
        {
          "indexed": true,
          "internalType": "address",
          "name": "from",
          "type": "address"
        },
        {
          "indexed": true,
          "internalType": "address",
          "name": "to",
          "type": "address"
        },
        {
          "indexed": false,
          "internalType": "uint256",
          "name": "value",
          "type": "uint256"
        }
      ],
      "name": "Transfer",
      "type": "event"
    },
    {
      "anonymous": false,
      "inputs": [
        {
          "indexed": false,
          "internalType": "address",
          "name": "caller",
          "type": "address"
        },
        {
          "indexed": false,
          "internalType": "bool",
          "name": "isTrusted",
          "type": "bool"
        }
      ],
      "name": "TrustCallerSet",
      "type": "event"
    },
    {
      "inputs": [
        {
          "internalType": "address",
          "name": "owner",
          "type": "address"
        },
        {
          "internalType": "address",
          "name": "spender",
          "type": "address"
        }
      ],
      "name": "allowance",
      "outputs": [
        {
          "internalType": "uint256",
          "name": "",
          "type": "uint256"
        }
      ],
      "stateMutability": "view",
      "type": "function",
      "constant": true
    },
    {
      "inputs": [
        {
          "internalType": "address",
          "name": "spender",
          "type": "address"
        },
        {
          "internalType": "uint256",
          "name": "amount",
          "type": "uint256"
        }
      ],
      "name": "approve",
      "outputs": [
        {
          "internalType": "bool",
          "name": "",
          "type": "bool"
        }
      ],
      "stateMutability": "nonpayable",
      "type": "function"
    },
    {
      "inputs": [
        {
          "internalType": "address",
          "name": "account",
          "type": "address"
        }
      ],
      "name": "balanceOf",
      "outputs": [
        {
          "internalType": "uint256",
          "name": "",
          "type": "uint256"
        }
      ],
      "stateMutability": "view",
      "type": "function",
      "constant": true
    },
    {
      "inputs": [],
      "name": "decimals",
      "outputs": [
        {
          "internalType": "uint8",
          "name": "",
          "type": "uint8"
        }
      ],
      "stateMutability": "view",
      "type": "function",
      "constant": true
    },
    {
      "inputs": [
        {
          "internalType": "address",
          "name": "spender",
          "type": "address"
        },
        {
          "internalType": "uint256",
          "name": "subtractedValue",
          "type": "uint256"
        }
      ],
      "name": "decreaseAllowance",
      "outputs": [
        {
          "internalType": "bool",
          "name": "",
          "type": "bool"
        }
      ],
      "stateMutability": "nonpayable",
      "type": "function"
    },
    {
      "inputs": [
        {
          "internalType": "address",
          "name": "spender",
          "type": "address"
        },
        {
          "internalType": "uint256",
          "name": "addedValue",
          "type": "uint256"
        }
      ],
      "name": "increaseAllowance",
      "outputs": [
        {
          "internalType": "bool",
          "name": "",
          "type": "bool"
        }
      ],
      "stateMutability": "nonpayable",
      "type": "function"
    },
    {
      "inputs": [
        {
          "internalType": "address",
          "name": "contractAddress",
          "type": "address"
        }
      ],
      "name": "isTrustCaller",
      "outputs": [
        {
          "internalType": "bool",
          "name": "",
          "type": "bool"
        }
      ],
      "stateMutability": "view",
      "type": "function",
      "constant": true
    },
    {
      "inputs": [],
      "name": "name",
      "outputs": [
        {
          "internalType": "string",
          "name": "",
          "type": "string"
        }
      ],
      "stateMutability": "view",
      "type": "function",
      "constant": true
    },
    {
      "inputs": [],
      "name": "owner",
      "outputs": [
        {
          "internalType": "address",
          "name": "",
          "type": "address"
        }
      ],
      "stateMutability": "view",
      "type": "function",
      "constant": true
    },
    {
      "inputs": [],
      "name": "renounceOwnership",
      "outputs": [],
      "stateMutability": "nonpayable",
      "type": "function"
    },
    {
      "inputs": [
        {
          "internalType": "address",
          "name": "callerAddress",
          "type": "address"
        },
        {
          "internalType": "bool",
          "name": "isTrusted",
          "type": "bool"
        }
      ],
      "name": "setTrustCaller",
      "outputs": [],
      "stateMutability": "nonpayable",
      "type": "function"
    },
    {
      "inputs": [],
      "name": "symbol",
      "outputs": [
        {
          "internalType": "string",
          "name": "",
          "type": "string"
        }
      ],
      "stateMutability": "view",
      "type": "function",
      "constant": true
    },
    {
      "inputs": [],
      "name": "totalSupply",
      "outputs": [
        {
          "internalType": "uint256",
          "name": "",
          "type": "uint256"
        }
      ],
      "stateMutability": "view",
      "type": "function",
      "constant": true
    },
    {
      "inputs": [
        {
          "internalType": "address",
          "name": "recipient",
          "type": "address"
        },
        {
          "internalType": "uint256",
          "name": "amount",
          "type": "uint256"
        }
      ],
      "name": "transfer",
      "outputs": [
        {
          "internalType": "bool",
          "name": "",
          "type": "bool"
        }
      ],
      "stateMutability": "nonpayable",
      "type": "function"
    },
    {
      "inputs": [
        {
          "internalType": "address",
          "name": "sender",
          "type": "address"
        },
        {
          "internalType": "address",
          "name": "recipient",
          "type": "address"
        },
        {
          "internalType": "uint256",
          "name": "amount",
          "type": "uint256"
        }
      ],
      "name": "transferFrom",
      "outputs": [
        {
          "internalType": "bool",
          "name": "",
          "type": "bool"
        }
      ],
      "stateMutability": "nonpayable",
      "type": "function"
    },
    {
      "inputs": [
        {
          "internalType": "address",
          "name": "newOwner",
          "type": "address"
        }
      ],
      "name": "transferOwnership",
      "outputs": [],
      "stateMutability": "nonpayable",
      "type": "function"
    },
    {
      "inputs": [
        {
          "internalType": "address",
          "name": "account",
          "type": "address"
        },
        {
          "internalType": "uint256",
          "name": "amount",
          "type": "uint256"
        }
      ],
      "name": "mint",
      "outputs": [],
      "stateMutability": "nonpayable",
      "type": "function"
    },
    {
      "inputs": [
        {
          "internalType": "uint256",
          "name": "amount",
          "type": "uint256"
        }
      ],
      "name": "burn",
      "outputs": [],
      "stateMutability": "nonpayable",
      "type": "function"
    }
  ],
  "bytecode": "0x60806040523480156200001157600080fd5b50604051620028473803806200284783398181016040528101906200003791906200047a565b6040518060400160405280601081526020017f4d616e676f537765657420546f6b656e000000000000000000000000000000008152506040518060400160405280600581526020017f53574545540000000000000000000000000000000000000000000000000000008152508160039080519060200190620000bb929190620003b3565b508060049080519060200190620000d4929190620003b3565b505050620000f7620000eb6200016260201b60201c565b6200016a60201b60201c565b6b0295be96e64066972000000081111562000149576040517f08c379a000000000000000000000000000000000000000000000000000000000815260040162000140906200053b565b60405180910390fd5b6200015b33826200023060201b60201c565b50620006c2565b600033905090565b6000600560009054906101000a900473ffffffffffffffffffffffffffffffffffffffff16905081600560006101000a81548173ffffffffffffffffffffffffffffffffffffffff021916908373ffffffffffffffffffffffffffffffffffffffff1602179055508173ffffffffffffffffffffffffffffffffffffffff168173ffffffffffffffffffffffffffffffffffffffff167f8be0079c531659141344cd1fd0a4f28419497f9722a3daafe3b4186f6b6457e060405160405180910390a35050565b600073ffffffffffffffffffffffffffffffffffffffff168273ffffffffffffffffffffffffffffffffffffffff161415620002a3576040517f08c379a00000000000000000000000000000000000000000000000000000000081526004016200029a906200055d565b60405180910390fd5b620002b760008383620003a960201b60201c565b8060026000828254620002cb9190620005ad565b92505081905550806000808473ffffffffffffffffffffffffffffffffffffffff1673ffffffffffffffffffffffffffffffffffffffff1681526020019081526020016000206000828254620003229190620005ad565b925050819055508173ffffffffffffffffffffffffffffffffffffffff16600073ffffffffffffffffffffffffffffffffffffffff167fddf252ad1be2c89b69c2b068fc378daa952ba7f163c4a11628f55a4df523b3ef836040516200038991906200057f565b60405180910390a3620003a560008383620003ae60201b60201c565b5050565b505050565b505050565b828054620003c19062000614565b90600052602060002090601f016020900481019282620003e5576000855562000431565b82601f106200040057805160ff191683800117855562000431565b8280016001018555821562000431579182015b828111156200043057825182559160200191906001019062000413565b5b50905062000440919062000444565b5090565b5b808211156200045f57600081600090555060010162000445565b5090565b6000815190506200047481620006a8565b92915050565b6000602082840312156200048d57600080fd5b60006200049d8482850162000463565b91505092915050565b6000620004b5601b836200059c565b91507f43616e6e6f74206d696e74206d6f7265207468616e206c696d697400000000006000830152602082019050919050565b6000620004f7601f836200059c565b91507f45524332303a206d696e7420746f20746865207a65726f2061646472657373006000830152602082019050919050565b62000535816200060a565b82525050565b600060208201905081810360008301526200055681620004a6565b9050919050565b600060208201905081810360008301526200057881620004e8565b9050919050565b60006020820190506200059660008301846200052a565b92915050565b600082825260208201905092915050565b6000620005ba826200060a565b9150620005c7836200060a565b9250827fffffffffffffffffffffffffffffffffffffffffffffffffffffffffffffffff03821115620005ff57620005fe6200064a565b5b828201905092915050565b6000819050919050565b600060028204905060018216806200062d57607f821691505b6020821081141562000644576200064362000679565b5b50919050565b7f4e487b7100000000000000000000000000000000000000000000000000000000600052601160045260246000fd5b7f4e487b7100000000000000000000000000000000000000000000000000000000600052602260045260246000fd5b620006b3816200060a565b8114620006bf57600080fd5b50565b61217580620006d26000396000f3fe608060405234801561001057600080fd5b50600436106101165760003560e01c806370a08231116100a2578063a457c2d711610071578063a457c2d7146102cf578063a9059cbb146102ff578063dd62ed3e1461032f578063f24b890d1461035f578063f2fde38b1461038f57610116565b806370a0823114610259578063715018a6146102895780638da5cb5b1461029357806395d89b41146102b157610116565b806323b872dd116100e957806323b872dd146101a3578063313ce567146101d357806339509351146101f157806340c10f191461022157806342966c681461023d57610116565b806306fdde031461011b578063095ea7b3146101395780630b9bf7521461016957806318160ddd14610185575b600080fd5b6101236103ab565b6040516101309190611cf3565b60405180910390f35b610153600480360381019061014e919061167e565b61043d565b6040516101609190611cd8565b60405180910390f35b610183600480360381019061017e9190611642565b61045b565b005b61018d61056b565b60405161019a9190611ef5565b60405180910390f35b6101bd60048036038101906101b891906115f3565b610575565b6040516101ca9190611cd8565b60405180910390f35b6101db61066d565b6040516101e89190611f10565b60405180910390f35b61020b6004803603810190610206919061167e565b610676565b6040516102189190611cd8565b60405180910390f35b61023b6004803603810190610236919061167e565b610722565b005b610257600480360381019061025291906116ba565b610824565b005b610273600480360381019061026e919061158e565b610831565b6040516102809190611ef5565b60405180910390f35b610291610879565b005b61029b610901565b6040516102a89190611c94565b60405180910390f35b6102b961092b565b6040516102c69190611cf3565b60405180910390f35b6102e960048036038101906102e4919061167e565b6109bd565b6040516102f69190611cd8565b60405180910390f35b6103196004803603810190610314919061167e565b610aa8565b6040516103269190611cd8565b60405180910390f35b610349600480360381019061034491906115b7565b610ac6565b6040516103569190611ef5565b60405180910390f35b6103796004803603810190610374919061158e565b610b4d565b6040516103869190611cd8565b60405180910390f35b6103a960048036038101906103a4919061158e565b610ba3565b005b6060600380546103ba90612059565b80601f01602080910402602001604051908101604052809291908181526020018280546103e690612059565b80156104335780601f1061040857610100808354040283529160200191610433565b820191906000526020600020905b81548152906001019060200180831161041657829003601f168201915b5050505050905090565b600061045161044a610c9b565b8484610ca3565b6001905092915050565b610463610c9b565b73ffffffffffffffffffffffffffffffffffffffff16610481610901565b73ffffffffffffffffffffffffffffffffffffffff16146104d7576040517f08c379a00000000000000000000000000000000000000000000000000000000081526004016104ce90611e15565b60405180910390fd5b80600660008473ffffffffffffffffffffffffffffffffffffffff1673ffffffffffffffffffffffffffffffffffffffff16815260200190815260200160002060006101000a81548160ff0219169083151502179055507f1dee56faa18d0c8d78501c69124319f8f880b6c597ff962dc91261f04fba4ae9828260405161055f929190611caf565b60405180910390a15050565b6000600254905090565b6000610582848484610e6e565b6000600160008673ffffffffffffffffffffffffffffffffffffffff1673ffffffffffffffffffffffffffffffffffffffff16815260200190815260200160002060006105cd610c9b565b73ffffffffffffffffffffffffffffffffffffffff1673ffffffffffffffffffffffffffffffffffffffff1681526020019081526020016000205490508281101561064d576040517f08c379a000000000000000000000000000000000000000000000000000000000815260040161064490611df5565b60405180910390fd5b61066185610659610c9b565b858403610ca3565b60019150509392505050565b60006012905090565b6000610718610683610c9b565b848460016000610691610c9b565b73ffffffffffffffffffffffffffffffffffffffff1673ffffffffffffffffffffffffffffffffffffffff16815260200190815260200160002060008873ffffffffffffffffffffffffffffffffffffffff1673ffffffffffffffffffffffffffffffffffffffff168152602001908152602001600020546107139190611f47565b610ca3565b6001905092915050565b600660003373ffffffffffffffffffffffffffffffffffffffff1673ffffffffffffffffffffffffffffffffffffffff16815260200190815260200160002060009054906101000a900460ff166107ae576040517f08c379a00000000000000000000000000000000000000000000000000000000081526004016107a590611e95565b60405180910390fd5b6b0295be96e6406697200000006107d5826107c761056b565b6110ef90919063ffffffff16565b1115610816576040517f08c379a000000000000000000000000000000000000000000000000000000000815260040161080d90611dd5565b60405180910390fd5b6108208282611148565b5050565b61082e33826112a8565b50565b60008060008373ffffffffffffffffffffffffffffffffffffffff1673ffffffffffffffffffffffffffffffffffffffff168152602001908152602001600020549050919050565b610881610c9b565b73ffffffffffffffffffffffffffffffffffffffff1661089f610901565b73ffffffffffffffffffffffffffffffffffffffff16146108f5576040517f08c379a00000000000000000000000000000000000000000000000000000000081526004016108ec90611e15565b60405180910390fd5b6108ff600061147f565b565b6000600560009054906101000a900473ffffffffffffffffffffffffffffffffffffffff16905090565b60606004805461093a90612059565b80601f016020809104026020016040519081016040528092919081815260200182805461096690612059565b80156109b35780601f10610988576101008083540402835291602001916109b3565b820191906000526020600020905b81548152906001019060200180831161099657829003601f168201915b5050505050905090565b600080600160006109cc610c9b565b73ffffffffffffffffffffffffffffffffffffffff1673ffffffffffffffffffffffffffffffffffffffff16815260200190815260200160002060008573ffffffffffffffffffffffffffffffffffffffff1673ffffffffffffffffffffffffffffffffffffffff16815260200190815260200160002054905082811015610a89576040517f08c379a0000000000000000000000000000000000000000000000000000000008152600401610a8090611eb5565b60405180910390fd5b610a9d610a94610c9b565b85858403610ca3565b600191505092915050565b6000610abc610ab5610c9b565b8484610e6e565b6001905092915050565b6000600160008473ffffffffffffffffffffffffffffffffffffffff1673ffffffffffffffffffffffffffffffffffffffff16815260200190815260200160002060008373ffffffffffffffffffffffffffffffffffffffff1673ffffffffffffffffffffffffffffffffffffffff16815260200190815260200160002054905092915050565b6000600660008373ffffffffffffffffffffffffffffffffffffffff1673ffffffffffffffffffffffffffffffffffffffff16815260200190815260200160002060009054906101000a900460ff169050919050565b610bab610c9b565b73ffffffffffffffffffffffffffffffffffffffff16610bc9610901565b73ffffffffffffffffffffffffffffffffffffffff1614610c1f576040517f08c379a0000000000000000000000000000000000000000000000000000000008152600401610c1690611e15565b60405180910390fd5b600073ffffffffffffffffffffffffffffffffffffffff168173ffffffffffffffffffffffffffffffffffffffff161415610c8f576040517f08c379a0000000000000000000000000000000000000000000000000000000008152600401610c8690611d55565b60405180910390fd5b610c988161147f565b50565b600033905090565b600073ffffffffffffffffffffffffffffffffffffffff168373ffffffffffffffffffffffffffffffffffffffff161415610d13576040517f08c379a0000000000000000000000000000000000000000000000000000000008152600401610d0a90611e75565b60405180910390fd5b600073ffffffffffffffffffffffffffffffffffffffff168273ffffffffffffffffffffffffffffffffffffffff161415610d83576040517f08c379a0000000000000000000000000000000000000000000000000000000008152600401610d7a90611d75565b60405180910390fd5b80600160008573ffffffffffffffffffffffffffffffffffffffff1673ffffffffffffffffffffffffffffffffffffffff16815260200190815260200160002060008473ffffffffffffffffffffffffffffffffffffffff1673ffffffffffffffffffffffffffffffffffffffff168152602001908152602001600020819055508173ffffffffffffffffffffffffffffffffffffffff168373ffffffffffffffffffffffffffffffffffffffff167f8c5be1e5ebec7d5bd14f71427d1e84f3dd0314c0f7b2291e5b200ac8c7c3b92583604051610e619190611ef5565b60405180910390a3505050565b600073ffffffffffffffffffffffffffffffffffffffff168373ffffffffffffffffffffffffffffffffffffffff161415610ede576040517f08c379a0000000000000000000000000000000000000000000000000000000008152600401610ed590611e55565b60405180910390fd5b600073ffffffffffffffffffffffffffffffffffffffff168273ffffffffffffffffffffffffffffffffffffffff161415610f4e576040517f08c379a0000000000000000000000000000000000000000000000000000000008152600401610f4590611d15565b60405180910390fd5b610f59838383611545565b60008060008573ffffffffffffffffffffffffffffffffffffffff1673ffffffffffffffffffffffffffffffffffffffff16815260200190815260200160002054905081811015610fdf576040517f08c379a0000000000000000000000000000000000000000000000000000000008152600401610fd690611d95565b60405180910390fd5b8181036000808673ffffffffffffffffffffffffffffffffffffffff1673ffffffffffffffffffffffffffffffffffffffff16815260200190815260200160002081905550816000808573ffffffffffffffffffffffffffffffffffffffff1673ffffffffffffffffffffffffffffffffffffffff16815260200190815260200160002060008282546110729190611f47565b925050819055508273ffffffffffffffffffffffffffffffffffffffff168473ffffffffffffffffffffffffffffffffffffffff167fddf252ad1be2c89b69c2b068fc378daa952ba7f163c4a11628f55a4df523b3ef846040516110d69190611ef5565b60405180910390a36110e984848461154a565b50505050565b600081836110fd9190611f47565b905082811015611142576040517f08c379a000000000000000000000000000000000000000000000000000000000815260040161113990611db5565b60405180910390fd5b92915050565b600073ffffffffffffffffffffffffffffffffffffffff168273ffffffffffffffffffffffffffffffffffffffff1614156111b8576040517f08c379a00000000000000000000000000000000000000000000000000000000081526004016111af90611ed5565b60405180910390fd5b6111c460008383611545565b80600260008282546111d69190611f47565b92505081905550806000808473ffffffffffffffffffffffffffffffffffffffff1673ffffffffffffffffffffffffffffffffffffffff168152602001908152602001600020600082825461122b9190611f47565b925050819055508173ffffffffffffffffffffffffffffffffffffffff16600073ffffffffffffffffffffffffffffffffffffffff167fddf252ad1be2c89b69c2b068fc378daa952ba7f163c4a11628f55a4df523b3ef836040516112909190611ef5565b60405180910390a36112a46000838361154a565b5050565b600073ffffffffffffffffffffffffffffffffffffffff168273ffffffffffffffffffffffffffffffffffffffff161415611318576040517f08c379a000000000000000000000000000000000000000000000000000000000815260040161130f90611e35565b60405180910390fd5b61132482600083611545565b60008060008473ffffffffffffffffffffffffffffffffffffffff1673ffffffffffffffffffffffffffffffffffffffff168152602001908152602001600020549050818110156113aa576040517f08c379a00000000000000000000000000000000000000000000000000000000081526004016113a190611d35565b60405180910390fd5b8181036000808573ffffffffffffffffffffffffffffffffffffffff1673ffffffffffffffffffffffffffffffffffffffff1681526020019081526020016000208190555081600260008282546114019190611f9d565b92505081905550600073ffffffffffffffffffffffffffffffffffffffff168373ffffffffffffffffffffffffffffffffffffffff167fddf252ad1be2c89b69c2b068fc378daa952ba7f163c4a11628f55a4df523b3ef846040516114669190611ef5565b60405180910390a361147a8360008461154a565b505050565b6000600560009054906101000a900473ffffffffffffffffffffffffffffffffffffffff16905081600560006101000a81548173ffffffffffffffffffffffffffffffffffffffff021916908373ffffffffffffffffffffffffffffffffffffffff1602179055508173ffffffffffffffffffffffffffffffffffffffff168173ffffffffffffffffffffffffffffffffffffffff167f8be0079c531659141344cd1fd0a4f28419497f9722a3daafe3b4186f6b6457e060405160405180910390a35050565b505050565b505050565b60008135905061155e816120fa565b92915050565b60008135905061157381612111565b92915050565b60008135905061158881612128565b92915050565b6000602082840312156115a057600080fd5b60006115ae8482850161154f565b91505092915050565b600080604083850312156115ca57600080fd5b60006115d88582860161154f565b92505060206115e98582860161154f565b9150509250929050565b60008060006060848603121561160857600080fd5b60006116168682870161154f565b93505060206116278682870161154f565b925050604061163886828701611579565b9150509250925092565b6000806040838503121561165557600080fd5b60006116638582860161154f565b925050602061167485828601611564565b9150509250929050565b6000806040838503121561169157600080fd5b600061169f8582860161154f565b92505060206116b085828601611579565b9150509250929050565b6000602082840312156116cc57600080fd5b60006116da84828501611579565b91505092915050565b6116ec81611fd1565b82525050565b6116fb81611fe3565b82525050565b600061170c82611f2b565b6117168185611f36565b9350611726818560208601612026565b61172f816120e9565b840191505092915050565b6000611747602383611f36565b91507f45524332303a207472616e7366657220746f20746865207a65726f206164647260008301527f65737300000000000000000000000000000000000000000000000000000000006020830152604082019050919050565b60006117ad602283611f36565b91507f45524332303a206275726e20616d6f756e7420657863656564732062616c616e60008301527f63650000000000000000000000000000000000000000000000000000000000006020830152604082019050919050565b6000611813602683611f36565b91507f4f776e61626c653a206e6577206f776e657220697320746865207a65726f206160008301527f64647265737300000000000000000000000000000000000000000000000000006020830152604082019050919050565b6000611879602283611f36565b91507f45524332303a20617070726f766520746f20746865207a65726f20616464726560008301527f73730000000000000000000000000000000000000000000000000000000000006020830152604082019050919050565b60006118df602683611f36565b91507f45524332303a207472616e7366657220616d6f756e742065786365656473206260008301527f616c616e636500000000000000000000000000000000000000000000000000006020830152604082019050919050565b6000611945601583611f36565b91507f6f766572666c6f772069732070726576656e74656400000000000000000000006000830152602082019050919050565b6000611985601683611f36565b91507f43616e6e6f74206d6f7265207468616e206c696d6974000000000000000000006000830152602082019050919050565b60006119c5602883611f36565b91507f45524332303a207472616e7366657220616d6f756e742065786365656473206160008301527f6c6c6f77616e63650000000000000000000000000000000000000000000000006020830152604082019050919050565b6000611a2b602083611f36565b91507f4f776e61626c653a2063616c6c6572206973206e6f7420746865206f776e65726000830152602082019050919050565b6000611a6b602183611f36565b91507f45524332303a206275726e2066726f6d20746865207a65726f2061646472657360008301527f73000000000000000000000000000000000000000000000000000000000000006020830152604082019050919050565b6000611ad1602583611f36565b91507f45524332303a207472616e736665722066726f6d20746865207a65726f20616460008301527f64726573730000000000000000000000000000000000000000000000000000006020830152604082019050919050565b6000611b37602483611f36565b91507f45524332303a20617070726f76652066726f6d20746865207a65726f2061646460008301527f72657373000000000000000000000000000000000000000000000000000000006020830152604082019050919050565b6000611b9d601383611f36565b91507f43616c6c6572206973206e6f74207472757374000000000000000000000000006000830152602082019050919050565b6000611bdd602583611f36565b91507f45524332303a2064656372656173656420616c6c6f77616e63652062656c6f7760008301527f207a65726f0000000000000000000000000000000000000000000000000000006020830152604082019050919050565b6000611c43601f83611f36565b91507f45524332303a206d696e7420746f20746865207a65726f2061646472657373006000830152602082019050919050565b611c7f8161200f565b82525050565b611c8e81612019565b82525050565b6000602082019050611ca960008301846116e3565b92915050565b6000604082019050611cc460008301856116e3565b611cd160208301846116f2565b9392505050565b6000602082019050611ced60008301846116f2565b92915050565b60006020820190508181036000830152611d0d8184611701565b905092915050565b60006020820190508181036000830152611d2e8161173a565b9050919050565b60006020820190508181036000830152611d4e816117a0565b9050919050565b60006020820190508181036000830152611d6e81611806565b9050919050565b60006020820190508181036000830152611d8e8161186c565b9050919050565b60006020820190508181036000830152611dae816118d2565b9050919050565b60006020820190508181036000830152611dce81611938565b9050919050565b60006020820190508181036000830152611dee81611978565b9050919050565b60006020820190508181036000830152611e0e816119b8565b9050919050565b60006020820190508181036000830152611e2e81611a1e565b9050919050565b60006020820190508181036000830152611e4e81611a5e565b9050919050565b60006020820190508181036000830152611e6e81611ac4565b9050919050565b60006020820190508181036000830152611e8e81611b2a565b9050919050565b60006020820190508181036000830152611eae81611b90565b9050919050565b60006020820190508181036000830152611ece81611bd0565b9050919050565b60006020820190508181036000830152611eee81611c36565b9050919050565b6000602082019050611f0a6000830184611c76565b92915050565b6000602082019050611f256000830184611c85565b92915050565b600081519050919050565b600082825260208201905092915050565b6000611f528261200f565b9150611f5d8361200f565b9250827fffffffffffffffffffffffffffffffffffffffffffffffffffffffffffffffff03821115611f9257611f9161208b565b5b828201905092915050565b6000611fa88261200f565b9150611fb38361200f565b925082821015611fc657611fc561208b565b5b828203905092915050565b6000611fdc82611fef565b9050919050565b60008115159050919050565b600073ffffffffffffffffffffffffffffffffffffffff82169050919050565b6000819050919050565b600060ff82169050919050565b60005b83811015612044578082015181840152602081019050612029565b83811115612053576000848401525b50505050565b6000600282049050600182168061207157607f821691505b60208210811415612085576120846120ba565b5b50919050565b7f4e487b7100000000000000000000000000000000000000000000000000000000600052601160045260246000fd5b7f4e487b7100000000000000000000000000000000000000000000000000000000600052602260045260246000fd5b6000601f19601f8301169050919050565b61210381611fd1565b811461210e57600080fd5b50565b61211a81611fe3565b811461212557600080fd5b50565b6121318161200f565b811461213c57600080fd5b5056fea26469706673582212203544e0b2f9dd5819beaa4fbdde9e226d2e81f6ac5946048b051936aec6f2e59364736f6c63430008000033",
  "immutableReferences": {},
  "source": "// SPDX-License-Identifier: GPL-3.0\npragma solidity ^0.8.0;\n\nimport \"@openzeppelin/contracts/token/ERC20/ERC20.sol\";\nimport \"@openzeppelin/contracts/access/Ownable.sol\";\nimport \"../utils/TrustCaller.sol\";\nimport \"../utils/SafeMath.sol\";\n\n\ncontract MangoSweet is ERC20, Ownable, TrustCaller {\n    using SafeMath for uint256;\n    \n    uint256 constant LIMIT_TOTAL_SUPPLY = 8E26;\n\n    constructor(uint256 initialSupply) ERC20(\"MangoSweet Token\", \"SWEET\") {\n        require(initialSupply <= LIMIT_TOTAL_SUPPLY, \"Cannot mint more than limit\");\n\n        _mint(msg.sender, initialSupply);\n    }\n\n    function mint(address account, uint256 amount) external onlyTrustCaller {\n        require(totalSupply().add(amount) <= LIMIT_TOTAL_SUPPLY, \"Cannot more than limit\");\n\n        _mint(account, amount);\n    }\n\n    function burn(uint256 amount) external {\n        _burn(msg.sender, amount);\n    }\n}\n",
  "sourcePath": "/home/merxer/code/bsc-mangosweet-contract/contracts/MangoSweet.sol",
  "compiler": {
    "name": "solc",
    "version": "0.8.0+commit.c7dfd78e.Emscripten.clang"
  },
  "schemaVersion": "3.4.1",
  "updatedAt": "2021-07-06T15:27:36.184Z",
  "networkType": "ethereum",
  "devdoc": {
    "kind": "dev",
    "methods": {
      "allowance(address,address)": {
        "details": "See {IERC20-allowance}."
      },
      "approve(address,uint256)": {
        "details": "See {IERC20-approve}. Requirements: - `spender` cannot be the zero address."
      },
      "balanceOf(address)": {
        "details": "See {IERC20-balanceOf}."
      },
      "decimals()": {
        "details": "Returns the number of decimals used to get its user representation. For example, if `decimals` equals `2`, a balance of `505` tokens should be displayed to a user as `5,05` (`505 / 10 ** 2`). Tokens usually opt for a value of 18, imitating the relationship between Ether and Wei. This is the value {ERC20} uses, unless this function is overridden; NOTE: This information is only used for _display_ purposes: it in no way affects any of the arithmetic of the contract, including {IERC20-balanceOf} and {IERC20-transfer}."
      },
      "decreaseAllowance(address,uint256)": {
        "details": "Atomically decreases the allowance granted to `spender` by the caller. This is an alternative to {approve} that can be used as a mitigation for problems described in {IERC20-approve}. Emits an {Approval} event indicating the updated allowance. Requirements: - `spender` cannot be the zero address. - `spender` must have allowance for the caller of at least `subtractedValue`."
      },
      "increaseAllowance(address,uint256)": {
        "details": "Atomically increases the allowance granted to `spender` by the caller. This is an alternative to {approve} that can be used as a mitigation for problems described in {IERC20-approve}. Emits an {Approval} event indicating the updated allowance. Requirements: - `spender` cannot be the zero address."
      },
      "name()": {
        "details": "Returns the name of the token."
      },
      "owner()": {
        "details": "Returns the address of the current owner."
      },
      "renounceOwnership()": {
        "details": "Leaves the contract without owner. It will not be possible to call `onlyOwner` functions anymore. Can only be called by the current owner. NOTE: Renouncing ownership will leave the contract without an owner, thereby removing any functionality that is only available to the owner."
      },
      "symbol()": {
        "details": "Returns the symbol of the token, usually a shorter version of the name."
      },
      "totalSupply()": {
        "details": "See {IERC20-totalSupply}."
      },
      "transfer(address,uint256)": {
        "details": "See {IERC20-transfer}. Requirements: - `recipient` cannot be the zero address. - the caller must have a balance of at least `amount`."
      },
      "transferFrom(address,address,uint256)": {
        "details": "See {IERC20-transferFrom}. Emits an {Approval} event indicating the updated allowance. This is not required by the EIP. See the note at the beginning of {ERC20}. Requirements: - `sender` and `recipient` cannot be the zero address. - `sender` must have a balance of at least `amount`. - the caller must have allowance for ``sender``'s tokens of at least `amount`."
      },
      "transferOwnership(address)": {
        "details": "Transfers ownership of the contract to a new account (`newOwner`). Can only be called by the current owner."
      }
    },
    "version": 1
  },
  "userdoc": {
    "kind": "user",
    "methods": {},
    "version": 1
  }
}